{
  "contractName": "tienda",
  "abi": [
    {
      "anonymous": false,
      "inputs": [
        {
          "indexed": false,
          "internalType": "address",
          "name": "_propietario",
          "type": "address"
        },
        {
          "indexed": false,
          "internalType": "uint256",
          "name": "_tokenId",
          "type": "uint256"
        },
        {
          "indexed": false,
          "internalType": "uint256",
          "name": "nose",
          "type": "uint256"
        }
      ],
      "name": "ventaCreada",
      "type": "event"
    },
    {
      "anonymous": false,
      "inputs": [
        {
          "indexed": false,
          "internalType": "address",
          "name": "_comprador",
          "type": "address"
        },
        {
          "indexed": false,
          "internalType": "address",
          "name": "_propietario",
          "type": "address"
        },
        {
          "indexed": false,
          "internalType": "uint256",
          "name": "_tokenId",
          "type": "uint256"
        }
      ],
      "name": "ventaRealizada",
      "type": "event"
    },
    {
      "inputs": [
        {
          "internalType": "uint256",
          "name": "",
          "type": "uint256"
        }
      ],
      "name": "onSaleNSTs",
      "outputs": [
        {
          "internalType": "uint256",
          "name": "tokenId",
          "type": "uint256"
        },
        {
          "internalType": "uint256",
          "name": "price",
          "type": "uint256"
        },
        {
          "internalType": "address payable",
          "name": "owner",
          "type": "address"
        },
        {
          "internalType": "bool",
          "name": "onSale",
          "type": "bool"
        },
        {
          "internalType": "bool",
          "name": "sold",
          "type": "bool"
        }
      ],
      "stateMutability": "view",
      "type": "function",
      "constant": true
    },
    {
      "inputs": [
        {
          "internalType": "uint256",
          "name": "",
          "type": "uint256"
        }
      ],
      "name": "propietarioToken",
      "outputs": [
        {
          "internalType": "address",
          "name": "",
          "type": "address"
        }
      ],
      "stateMutability": "view",
      "type": "function",
      "constant": true
    },
    {
      "inputs": [
        {
          "internalType": "uint256",
          "name": "",
          "type": "uint256"
        }
      ],
      "name": "ventaId",
      "outputs": [
        {
          "internalType": "uint256",
          "name": "",
          "type": "uint256"
        }
      ],
      "stateMutability": "view",
      "type": "function",
      "constant": true
    },
    {
      "inputs": [
        {
          "internalType": "address",
          "name": "",
          "type": "address"
        },
        {
          "internalType": "address",
          "name": "_from",
          "type": "address"
        },
        {
          "internalType": "uint256",
          "name": "_tokenId",
          "type": "uint256"
        },
        {
          "internalType": "bytes",
          "name": "",
          "type": "bytes"
        }
      ],
      "name": "onERC721Received",
      "outputs": [
        {
          "internalType": "bytes4",
          "name": "",
          "type": "bytes4"
        }
      ],
      "stateMutability": "nonpayable",
      "type": "function"
    },
    {
      "inputs": [
        {
          "internalType": "uint256",
          "name": "_tokenId",
          "type": "uint256"
        },
        {
          "internalType": "uint256",
          "name": "_price",
          "type": "uint256"
        }
      ],
      "name": "setPrice",
      "outputs": [],
      "stateMutability": "nonpayable",
      "type": "function"
    },
    {
      "inputs": [],
      "name": "totalSales",
      "outputs": [
        {
          "internalType": "uint256",
          "name": "",
          "type": "uint256"
        }
      ],
      "stateMutability": "view",
      "type": "function",
      "constant": true
    },
    {
      "inputs": [
        {
          "internalType": "uint256",
          "name": "_tokenId",
          "type": "uint256"
        }
      ],
      "name": "onSale",
      "outputs": [
        {
          "internalType": "bool",
          "name": "",
          "type": "bool"
        }
      ],
      "stateMutability": "view",
      "type": "function",
      "constant": true
    },
    {
      "inputs": [
        {
          "internalType": "uint256",
          "name": "_tokenId",
          "type": "uint256"
        }
      ],
      "name": "buyNFT",
      "outputs": [],
      "stateMutability": "payable",
      "type": "function",
      "payable": true
    }
  ],
  "bytecode": "0x608060405234801561001057600080fd5b50610e63806100206000396000f3fe60806040526004361061007b5760003560e01c80636605ff661161004e5780636605ff6614610153578063a3fb06131461017e578063b43a76f1146101bf578063f7d97577146101fc5761007b565b8063150b7a02146100805780631e173f92146100bd57806351ed8288146100fa5780635ea833c114610116575b600080fd5b34801561008c57600080fd5b506100a760048036038101906100a29190610b4c565b610225565b6040516100b49190610c0a565b60405180910390f35b3480156100c957600080fd5b506100e460048036038101906100df9190610c25565b61045c565b6040516100f19190610c61565b60405180910390f35b610114600480360381019061010f9190610c25565b61048f565b005b34801561012257600080fd5b5061013d60048036038101906101389190610c25565b6106d7565b60405161014a9190610c8b565b60405180910390f35b34801561015f57600080fd5b506101686106ef565b6040516101759190610c8b565b60405180910390f35b34801561018a57600080fd5b506101a560048036038101906101a09190610c25565b6106fb565b6040516101b6959493929190610ce2565b60405180910390f35b3480156101cb57600080fd5b506101e660048036038101906101e19190610c25565b61077b565b6040516101f39190610d35565b60405180910390f35b34801561020857600080fd5b50610223600480360381019061021e9190610d50565b610818565b005b6000806000805490509050610238610915565b84816000018181525050600081602001818152505085816040019073ffffffffffffffffffffffffffffffffffffffff16908173ffffffffffffffffffffffffffffffffffffffff1681525050600081606001901515908115158152505060008160800190151590811515815250506000819080600181540180825580915050600190039060005260206000209060030201600090919091909150600082015181600001556020820151816001015560408201518160020160006101000a81548173ffffffffffffffffffffffffffffffffffffffff021916908373ffffffffffffffffffffffffffffffffffffffff16021790555060608201518160020160146101000a81548160ff02191690831515021790555060808201518160020160156101000a81548160ff0219169083151502179055505050856001600087815260200190815260200160002060006101000a81548173ffffffffffffffffffffffffffffffffffffffff021916908373ffffffffffffffffffffffffffffffffffffffff1602179055508160026000878152602001908152602001600020819055507fe27bc80c016e5d7b5e5c1a42c1e540cec838e9a35b4d549a56890ee81836b6c66001600087815260200190815260200160002060009054906101000a900473ffffffffffffffffffffffffffffffffffffffff16868460405161044093929190610d90565b60405180910390a163150b7a0260e01b92505050949350505050565b60016020528060005260406000206000915054906101000a900473ffffffffffffffffffffffffffffffffffffffff1681565b6001151560006002600084815260200190815260200160002054815481106104ba576104b9610dc7565b5b906000526020600020906003020160020160149054906101000a900460ff161515146104e557600080fd5b6000151560006002600084815260200190815260200160002054815481106105105761050f610dc7565b5b906000526020600020906003020160020160159054906101000a900460ff1615151461053b57600080fd5b600060026000838152602001908152602001600020548154811061056257610561610dc7565b5b90600052602060002090600302016001015434101561058057600080fd5b6001600082815260200190815260200160002060009054906101000a900473ffffffffffffffffffffffffffffffffffffffff1673ffffffffffffffffffffffffffffffffffffffff166108fc349081150290604051600060405180830381858888f193505050501580156105f9573d6000803e3d6000fd5b5060007315ec0f1928662713e217d92575623b0287a012c890508073ffffffffffffffffffffffffffffffffffffffff166342842e0e3033856040518463ffffffff1660e01b815260040161065093929190610df6565b600060405180830381600087803b15801561066a57600080fd5b505af115801561067e573d6000803e3d6000fd5b50505050600160006002600085815260200190815260200160002054815481106106ab576106aa610dc7565b5b906000526020600020906003020160020160156101000a81548160ff0219169083151502179055505050565b60026020528060005260406000206000915090505481565b60008080549050905090565b6000818154811061070b57600080fd5b90600052602060002090600302016000915090508060000154908060010154908060020160009054906101000a900473ffffffffffffffffffffffffffffffffffffffff16908060020160149054906101000a900460ff16908060020160159054906101000a900460ff16905085565b6000806002600084815260200190815260200160002054815481106107a3576107a2610dc7565b5b906000526020600020906003020160020160149054906101000a900460ff168015610811575060006002600084815260200190815260200160002054815481106107f0576107ef610dc7565b5b906000526020600020906003020160020160159054906101000a900460ff16155b9050919050565b6001600083815260200190815260200160002060009054906101000a900473ffffffffffffffffffffffffffffffffffffffff1673ffffffffffffffffffffffffffffffffffffffff163373ffffffffffffffffffffffffffffffffffffffff161461088357600080fd5b8060006002600085815260200190815260200160002054815481106108ab576108aa610dc7565b5b906000526020600020906003020160010181905550600160006002600085815260200190815260200160002054815481106108e9576108e8610dc7565b5b906000526020600020906003020160020160146101000a81548160ff0219169083151502179055505050565b6040518060a001604052806000815260200160008152602001600073ffffffffffffffffffffffffffffffffffffffff1681526020016000151581526020016000151581525090565b6000604051905090565b600080fd5b600080fd5b600073ffffffffffffffffffffffffffffffffffffffff82169050919050565b600061099d82610972565b9050919050565b6109ad81610992565b81146109b857600080fd5b50565b6000813590506109ca816109a4565b92915050565b6000819050919050565b6109e3816109d0565b81146109ee57600080fd5b50565b600081359050610a00816109da565b92915050565b600080fd5b600080fd5b6000601f19601f8301169050919050565b7f4e487b7100000000000000000000000000000000000000000000000000000000600052604160045260246000fd5b610a5982610a10565b810181811067ffffffffffffffff82111715610a7857610a77610a21565b5b80604052505050565b6000610a8b61095e565b9050610a978282610a50565b919050565b600067ffffffffffffffff821115610ab757610ab6610a21565b5b610ac082610a10565b9050602081019050919050565b82818337600083830152505050565b6000610aef610aea84610a9c565b610a81565b905082815260208101848484011115610b0b57610b0a610a0b565b5b610b16848285610acd565b509392505050565b600082601f830112610b3357610b32610a06565b5b8135610b43848260208601610adc565b91505092915050565b60008060008060808587031215610b6657610b65610968565b5b6000610b74878288016109bb565b9450506020610b85878288016109bb565b9350506040610b96878288016109f1565b925050606085013567ffffffffffffffff811115610bb757610bb661096d565b5b610bc387828801610b1e565b91505092959194509250565b60007fffffffff0000000000000000000000000000000000000000000000000000000082169050919050565b610c0481610bcf565b82525050565b6000602082019050610c1f6000830184610bfb565b92915050565b600060208284031215610c3b57610c3a610968565b5b6000610c49848285016109f1565b91505092915050565b610c5b81610992565b82525050565b6000602082019050610c766000830184610c52565b92915050565b610c85816109d0565b82525050565b6000602082019050610ca06000830184610c7c565b92915050565b6000610cb182610972565b9050919050565b610cc181610ca6565b82525050565b60008115159050919050565b610cdc81610cc7565b82525050565b600060a082019050610cf76000830188610c7c565b610d046020830187610c7c565b610d116040830186610cb8565b610d1e6060830185610cd3565b610d2b6080830184610cd3565b9695505050505050565b6000602082019050610d4a6000830184610cd3565b92915050565b60008060408385031215610d6757610d66610968565b5b6000610d75858286016109f1565b9250506020610d86858286016109f1565b9150509250929050565b6000606082019050610da56000830186610c52565b610db26020830185610c7c565b610dbf6040830184610c7c565b949350505050565b7f4e487b7100000000000000000000000000000000000000000000000000000000600052603260045260246000fd5b6000606082019050610e0b6000830186610c52565b610e186020830185610c52565b610e256040830184610c7c565b94935050505056fea26469706673582212200a979a8d719176696d2bc4dd5045256436606637f78c88793bc797893e7a7b9b64736f6c63430008090033",
  "immutableReferences": {},
  "source": "// SPDX-License-Identifier: MIT\r\npragma solidity ^0.8.2;\r\n\r\nimport \"./ObrasDeArte.sol\";\r\nimport \"@openzeppelin/contracts/token/ERC721/IERC721Receiver.sol\";\r\n\r\ncontract tienda is IERC721Receiver{\r\n    \r\n    onSaleNST[] public onSaleNSTs;\r\n    \r\n    mapping(uint => address) public propietarioToken;\r\n    mapping(uint => uint) public ventaId;\r\n    \r\n    struct onSaleNST {\r\n        uint256 tokenId;\r\n        uint256 price;\r\n        address payable owner; // payable es para poder usar las llamadas .transfer() o .send()\r\n        bool onSale;\r\n        bool sold;\r\n    }\r\n    \r\n    \r\n    function onERC721Received(address, address _from, uint256 _tokenId, bytes memory) public virtual override returns (bytes4) {\r\n        uint saleId = onSaleNSTs.length;\r\n        onSaleNST memory newSale;\r\n        newSale.tokenId = _tokenId;\r\n        newSale.price = 0;\r\n        newSale.owner = payable(_from);\r\n        newSale.onSale = false;\r\n        newSale.sold = false;\r\n        onSaleNSTs.push(newSale);\r\n        propietarioToken[_tokenId] = _from;\r\n        ventaId[_tokenId] = saleId;\r\n        emit ventaCreada(propietarioToken[_tokenId],_tokenId,saleId);\r\n        return this.onERC721Received.selector;\r\n    }\r\n    \r\n    \r\n    function setPrice(uint256 _tokenId, uint256 _price) public{\r\n        require(msg.sender == propietarioToken[_tokenId]);\r\n        onSaleNSTs[ventaId[_tokenId]].price = _price;\r\n        onSaleNSTs[ventaId[_tokenId]].onSale = true;\r\n    }\r\n    \r\n    function totalSales() public view returns (uint){\r\n        return onSaleNSTs.length;\r\n    }\r\n    \r\n    function onSale(uint _tokenId) public view returns (bool){\r\n        return (onSaleNSTs[ventaId[_tokenId]].onSale && !onSaleNSTs[ventaId[_tokenId]].sold);\r\n    }\r\n    \r\n    function buyNFT(uint _tokenId) public payable {\r\n        require(onSaleNSTs[ventaId[_tokenId]].onSale == true);\r\n        require(onSaleNSTs[ventaId[_tokenId]].sold == false);\r\n        require(msg.value >= onSaleNSTs[ventaId[_tokenId]].price);\r\n        payable(propietarioToken[_tokenId]).transfer(msg.value);\r\n        ObrasDeArte remoteContract = ObrasDeArte(0x15Ec0f1928662713E217D92575623B0287a012c8);\r\n        remoteContract.safeTransferFrom(address(this),msg.sender,_tokenId);\r\n        onSaleNSTs[ventaId[_tokenId]].sold = true;\r\n    }\r\n    \r\n    // EVENTOS\r\n    \r\n    event ventaCreada(address _propietario, uint _tokenId, uint nose);\r\n    \r\n    event ventaRealizada(address _comprador, address _propietario, uint _tokenId);\r\n    \r\n}",
  "sourcePath": "C:\\Users\\diego\\Documents\\GitHub\\Compra-Venta_Descentralizada\\backend\\contracts\\tienda.sol",
  "compiler": {
    "name": "solc",
    "version": "0.8.9+commit.e5eed63a.Emscripten.clang"
  },
  "schemaVersion": "3.4.3",
  "updatedAt": "2021-12-06T15:27:23.922Z",
  "networkType": "ethereum",
  "devdoc": {
    "kind": "dev",
    "methods": {},
    "version": 1
  },
  "userdoc": {
    "kind": "user",
    "methods": {},
    "version": 1
  }
}